{
  "_format": "hh-sol-artifact-1",
  "contractName": "ConstAddressDeployer",
  "sourceName": "contracts/ConstAddressDeployer.sol",
  "abi": [
    {
      "inputs": [],
      "name": "EmptyBytecode",
      "type": "error"
    },
    {
      "inputs": [],
      "name": "FailedDeploy",
      "type": "error"
    },
    {
      "inputs": [],
      "name": "FailedInit",
      "type": "error"
    },
    {
      "anonymous": false,
      "inputs": [
        {
          "indexed": true,
          "internalType": "bytes32",
          "name": "bytecodeHash",
          "type": "bytes32"
        },
        {
          "indexed": true,
          "internalType": "bytes32",
          "name": "salt",
          "type": "bytes32"
        },
        {
          "indexed": true,
          "internalType": "address",
          "name": "deployedAddress",
          "type": "address"
        }
      ],
      "name": "Deployed",
      "type": "event"
    },
    {
      "inputs": [
        {
          "internalType": "bytes",
          "name": "bytecode",
          "type": "bytes"
        },
        {
          "internalType": "bytes32",
          "name": "salt",
          "type": "bytes32"
        }
      ],
      "name": "deploy",
      "outputs": [
        {
          "internalType": "address",
          "name": "deployedAddress_",
          "type": "address"
        }
      ],
      "stateMutability": "nonpayable",
      "type": "function"
    },
    {
      "inputs": [
        {
          "internalType": "bytes",
          "name": "bytecode",
          "type": "bytes"
        },
        {
          "internalType": "bytes32",
          "name": "salt",
          "type": "bytes32"
        },
        {
          "internalType": "bytes",
          "name": "init",
          "type": "bytes"
        }
      ],
      "name": "deployAndInit",
      "outputs": [
        {
          "internalType": "address",
          "name": "deployedAddress_",
          "type": "address"
        }
      ],
      "stateMutability": "nonpayable",
      "type": "function"
    },
    {
      "inputs": [
        {
          "internalType": "bytes",
          "name": "bytecode",
          "type": "bytes"
        },
        {
          "internalType": "address",
          "name": "sender",
          "type": "address"
        },
        {
          "internalType": "bytes32",
          "name": "salt",
          "type": "bytes32"
        }
      ],
      "name": "deployedAddress",
      "outputs": [
        {
          "internalType": "address",
          "name": "deployedAddress_",
          "type": "address"
        }
      ],
      "stateMutability": "view",
      "type": "function"
    }
  ],
  "bytecode": "0x608060405234801561001057600080fd5b506105a4806100206000396000f3fe608060405234801561001057600080fd5b50600436106100415760003560e01c80634af63f0214610046578063c2b1041c14610075578063cf4d643214610088575b600080fd5b6100596100543660046103f7565b61009b565b6040516001600160a01b03909116815260200160405180910390f35b610059610083366004610485565b6100da565b6100596100963660046104ee565b6101a9565b604080513360208201529081018290526000906100d39084906060015b6040516020818303038152906040528051906020012061026e565b9392505050565b604080516001600160a01b038416602082015290810182905260009081906060016040516020818303038152906040528051906020012090503081878760405161012592919061055e565b6040519081900381206101879392916020017fff00000000000000000000000000000000000000000000000000000000000000815260609390931b6bffffffffffffffffffffffff191660018401526015830191909152603582015260550190565b60408051601f1981840301815291905280516020909101209695505050505050565b604080513360208201529081018490526000906101ca9086906060016100b8565b90506000816001600160a01b031684846040516101e892919061055e565b6000604051808303816000865af19150503d8060008114610225576040519150601f19603f3d011682016040523d82523d6000602084013e61022a565b606091505b5050905080610265576040517f4f77232300000000000000000000000000000000000000000000000000000000815260040160405180910390fd5b50949350505050565b60008251600014156102ac576040517f21744a5900000000000000000000000000000000000000000000000000000000815260040160405180910390fd5b818351602085016000f590506001600160a01b0381166102f8576040517f4102e83a00000000000000000000000000000000000000000000000000000000815260040160405180910390fd5b825160208401206040516001600160a01b0383169184917f27b8e3132afa95254770e1c1d214eafde52bc47d1b6e1f5dfcbb380c3ca3f53290600090a492915050565b7f4e487b7100000000000000000000000000000000000000000000000000000000600052604160045260246000fd5b600082601f83011261037b57600080fd5b813567ffffffffffffffff808211156103965761039661033b565b604051601f8301601f19908116603f011681019082821181831017156103be576103be61033b565b816040528381528660208588010111156103d757600080fd5b836020870160208301376000602085830101528094505050505092915050565b6000806040838503121561040a57600080fd5b823567ffffffffffffffff81111561042157600080fd5b61042d8582860161036a565b95602094909401359450505050565b60008083601f84011261044e57600080fd5b50813567ffffffffffffffff81111561046657600080fd5b60208301915083602082850101111561047e57600080fd5b9250929050565b6000806000806060858703121561049b57600080fd5b843567ffffffffffffffff8111156104b257600080fd5b6104be8782880161043c565b90955093505060208501356001600160a01b03811681146104de57600080fd5b9396929550929360400135925050565b6000806000806060858703121561050457600080fd5b843567ffffffffffffffff8082111561051c57600080fd5b6105288883890161036a565b955060208701359450604087013591508082111561054557600080fd5b506105528782880161043c565b95989497509550505050565b818382376000910190815291905056fea26469706673582212206a8d0537e27fe239a39d5ad8e5334db0447d0a1d7d49a7e82479baaa1319b39664736f6c63430008090033",
  "linkReferences": {},
  "deployedLinkReferences": {}
}