{
  "_format": "hh-sol-artifact-1",
  "contractName": "ConstAddressDeployer",
  "sourceName": "contracts/ConstAddressDeployer.sol",
  "abi": [
    {
      "inputs": [],
      "name": "FailedInit",
      "type": "error"
    },
    {
      "anonymous": false,
      "inputs": [
        {
          "indexed": false,
          "internalType": "bytes32",
          "name": "bytecodeHash",
          "type": "bytes32"
        },
        {
          "indexed": false,
          "internalType": "bytes32",
          "name": "salt",
          "type": "bytes32"
        },
        {
          "indexed": false,
          "internalType": "address",
          "name": "deployedAddress",
          "type": "address"
        }
      ],
      "name": "Deployed",
      "type": "event"
    },
    {
      "inputs": [
        {
          "internalType": "bytes",
          "name": "bytecode",
          "type": "bytes"
        },
        {
          "internalType": "bytes32",
          "name": "salt",
          "type": "bytes32"
        }
      ],
      "name": "deploy",
      "outputs": [
        {
          "internalType": "address",
          "name": "deployedAddress_",
          "type": "address"
        }
      ],
      "stateMutability": "nonpayable",
      "type": "function"
    },
    {
      "inputs": [
        {
          "internalType": "bytes",
          "name": "bytecode",
          "type": "bytes"
        },
        {
          "internalType": "bytes32",
          "name": "salt",
          "type": "bytes32"
        },
        {
          "internalType": "bytes",
          "name": "init",
          "type": "bytes"
        }
      ],
      "name": "deployAndInit",
      "outputs": [
        {
          "internalType": "address",
          "name": "deployedAddress_",
          "type": "address"
        }
      ],
      "stateMutability": "nonpayable",
      "type": "function"
    },
    {
      "inputs": [
        {
          "internalType": "bytes",
          "name": "bytecode",
          "type": "bytes"
        },
        {
          "internalType": "address",
          "name": "sender",
          "type": "address"
        },
        {
          "internalType": "bytes32",
          "name": "salt",
          "type": "bytes32"
        }
      ],
      "name": "deployedAddress",
      "outputs": [
        {
          "internalType": "address",
          "name": "deployedAddress_",
          "type": "address"
        }
      ],
      "stateMutability": "view",
      "type": "function"
    }
  ],
  "bytecode": "0x608060405234801561001057600080fd5b506105ac806100206000396000f3fe608060405234801561001057600080fd5b50600436106100415760003560e01c80634af63f0214610046578063c2b1041c14610075578063cf4d643214610088575b600080fd5b6100596100543660046103ff565b61009b565b6040516001600160a01b03909116815260200160405180910390f35b61005961008336600461048d565b61013a565b6100596100963660046104f6565b610209565b604080513360208201529081018290526000908190606001604051602081830303815290604052805190602001209050808451602086016000f591507f27b8e3132afa95254770e1c1d214eafde52bc47d1b6e1f5dfcbb380c3ca3f5328480519060200120848460405161012b9392919092835260208301919091526001600160a01b0316604082015260600190565b60405180910390a15092915050565b604080516001600160a01b0384166020820152908101829052600090819060600160405160208183030381529060405280519060200120905030818787604051610185929190610566565b6040519081900381206101e79392916020017fff00000000000000000000000000000000000000000000000000000000000000815260609390931b6bffffffffffffffffffffffff191660018401526015830191909152603582015260550190565b60408051601f1981840301815291905280516020909101209695505050505050565b604080513360208201529081018490526000908190606001604051602081830303815290604052805190602001209050808651602088016000f591506000826001600160a01b03168585604051610261929190610566565b6000604051808303816000865af19150503d806000811461029e576040519150601f19603f3d011682016040523d82523d6000602084013e6102a3565b606091505b50509050806102de576040517f4f77232300000000000000000000000000000000000000000000000000000000815260040160405180910390fd5b865160208801206040517f27b8e3132afa95254770e1c1d214eafde52bc47d1b6e1f5dfcbb380c3ca3f53291610331918990879092835260208301919091526001600160a01b0316604082015260600190565b60405180910390a15050949350505050565b7f4e487b7100000000000000000000000000000000000000000000000000000000600052604160045260246000fd5b600082601f83011261038357600080fd5b813567ffffffffffffffff8082111561039e5761039e610343565b604051601f8301601f19908116603f011681019082821181831017156103c6576103c6610343565b816040528381528660208588010111156103df57600080fd5b836020870160208301376000602085830101528094505050505092915050565b6000806040838503121561041257600080fd5b823567ffffffffffffffff81111561042957600080fd5b61043585828601610372565b95602094909401359450505050565b60008083601f84011261045657600080fd5b50813567ffffffffffffffff81111561046e57600080fd5b60208301915083602082850101111561048657600080fd5b9250929050565b600080600080606085870312156104a357600080fd5b843567ffffffffffffffff8111156104ba57600080fd5b6104c687828801610444565b90955093505060208501356001600160a01b03811681146104e657600080fd5b9396929550929360400135925050565b6000806000806060858703121561050c57600080fd5b843567ffffffffffffffff8082111561052457600080fd5b61053088838901610372565b955060208701359450604087013591508082111561054d57600080fd5b5061055a87828801610444565b95989497509550505050565b818382376000910190815291905056fea2646970667358221220472226407ac2c04d886a2005c768eb7355d59b2f9ff02850f40c54dadc84694864736f6c63430008090033",
  "linkReferences": {},
  "deployedLinkReferences": {}
}